:1000000019C020C01FC01EC01DC01CC01BC01AC00C
:1000100019C018C017C016C015C014C013C012C034
:1000200011C010C00FC00EC00DC00CC00BC00AC064
:1000300009C008C011241FBECFEFD4E0DEBFCDBF82
:1000400086D0B3C0DDCF8AB180668AB984B58360BB
:1000500084BD84B5806884BD84B5806284BD85B567
:10006000816085BD08959093C5008093C40080E1B0
:100070008093C10086E08093C200089587B18C63AD
:1000800087B908958091C00087FFFCCF8091C6009A
:100090000895873028F495E2899F802D11240895D2
:1000A0008FEF0895482F873010F0662391F085E296
:1000B000489F90011124629FC001639F900D1124FD
:1000C00069EF7FEF4BD0862F95E2499F800D112479
:1000D00008958FEF08951F93CF93DF9300D0CDB78E
:1000E000DEB7873028F415E2819F102D112401C05E
:1000F0001FEF2A834983D6DF49812A81442329F0CF
:10010000459A4498439A429804C04598449A439823
:10011000429A222319F087BD18BD02C017BD88BDC1
:100120000F900F90DF91CF911F910895ABDF282F93
:10013000217081FB442740F9682F6C7170E0759540
:10014000679575956795829586958770C4CF7BDF97
:1001500083E390E088DF92DFE9DFFECF97FB072E95
:1001600016F4009406D077FD08D00BD007FC05D01C
:100170003EF4909581959F4F0895709561957F4FBE
:100180000895AA1BBB1B51E107C0AA1FBB1FA617DE
:10019000B70710F0A61BB70B881F991F5A95A9F730
:0E01A00080959095BC01CD010895F894FFCF95
:00000001FF
